:100000000C942A000C9434000C9434000C943400AA
:100010000C9434000C9434000C9434000C94340090
:100020000C9434000C9434000C9434000C94340080
:100030000C9434000C9434000C9434000C94340070
:100040000C9434000C9434000C9434000C94340060
:100050000C94340011241FBECFE5D8E0DEBFCDBF25
:100060000E94A6010C94BF010C940000DF93CF9373
:10007000CDB7DEB7EAE3F0E08FEF8083E7E3F0E0AF
:100080008CEF8083E4E3F0E08FEF8083E1E3F0E046
:100090008FEF8083CF91DF910895DF93CF9300D0CE
:1000A000CDB7DEB789836A838981883080F58A81FC
:1000B0008130A1F4ABE3B0E0EBE3F0E08081482FC6
:1000C0008981282F30E081E090E0022E02C0880F65
:1000D000991F0A94E2F7842B8C93C2C08A818823EB
:1000E00009F0BEC0ABE3B0E0EBE3F0E08081482F65
:1000F0008981282F30E081E090E0022E02C0880F35
:10010000991F0A94E2F7809584238C93A9C0898172
:100110008830B0F18981803198F589818850898350
:100120008A818130A1F4A8E3B0E0E8E3F0E08081C7
:10013000482F8981282F30E081E090E0022E02C014
:10014000880F991F0A94E2F7842B8C9389C08A81C7
:10015000882309F085C0A8E3B0E0E8E3F0E08081FF
:10016000482F8981282F30E081E090E0022E02C0E4
:10017000880F991F0A94E2F7809584238C9370C0AE
:1001800089818031B0F18981883198F589818051E8
:1001900089838A818130A1F4A5E3B0E0E5E3F0E052
:1001A0008081482F8981282F30E081E090E0022E65
:1001B00002C0880F991F0A94E2F7842B8C9350C0D9
:1001C0008A81882309F04CC0A5E3B0E0E5E3F0E0C4
:1001D0008081482F8981282F30E081E090E0022E35
:1001E00002C0880F991F0A94E2F7809584238C93AC
:1001F00037C089818831A0F18981803288F5898171
:10020000885189838A818130A1F4A2E3B0E0E2E3DE
:10021000F0E08081482F8981282F30E081E090E054
:10022000022E02C0880F991F0A94E2F7842B8C9348
:1002300017C08A818823A1F4A2E3B0E0E2E3F0E0F2
:100240008081482F8981282F30E081E090E0022EC4
:1002500002C0880F991F0A94E2F7809584238C933B
:100260000F900F90CF91DF910895DF93CF9300D03F
:10027000CDB7DEB78A838A81883090F4E9E3F0E075
:100280008081282F30E08A81882F90E0A90102C068
:10029000559547958A95E2F7CA018170898350C0C8
:1002A0008A818830C0F08A818031A8F48A818850A0
:1002B0008A83E6E3F0E08081282F30E08A81882F6E
:1002C00090E0A90102C0559547958A95E2F7CA01C9
:1002D0008170898335C08A818031C0F08A818831FC
:1002E000A8F48A8180518A83E3E3F0E08081282F9B
:1002F00030E08A81882F90E0A90102C0559547958A
:100300008A95E2F7CA01817089831AC08A8188318F
:10031000B8F08A818032A0F48A8188518A83E0E330
:10032000F0E08081282F30E08A81882F90E0A901B9
:1003300002C0559547958A95E2F7CA018170898375
:1003400089810F900F90CF91DF910895DF93CF9324
:10035000CDB7DEB70E94360088E00E9435018130BB
:1003600021F480E061E00E944D0089E00E943501A7
:10037000813091F781E061E00E944D00EDCFF8946B
:02038000FFCFAD
:00000001FF
